{
	"data": {
		"bytecode": {
			"linkReferences": {},
			"object": "6080604052348015600e575f80fd5b5060405161042d38038061042d8339818101604052810190602e9190608a565b805f806101000a81548163ffffffff021916908363ffffffff1602179055505060b0565b5f80fd5b5f63ffffffff82169050919050565b606c816056565b81146075575f80fd5b50565b5f815190506084816065565b92915050565b5f60208284031215609c57609b6052565b5b5f60a7848285016078565b91505092915050565b610370806100bd5f395ff3fe608060405234801561000f575f80fd5b5060043610610055575f3560e01c806319eb4a90146100595780631aa93ffb1461007757806349d4476714610093578063698996f8146100af578063cbe3a072146100cd575b5f80fd5b6100616100e9565b60405161006e91906101f1565b60405180910390f35b610091600480360381019061008c9190610238565b610100565b005b6100ad60048036038101906100a89190610238565b610140565b005b6100b7610180565b6040516100c491906101f1565b60405180910390f35b6100e760048036038101906100e29190610238565b610193565b005b5f805f9054906101000a900463ffffffff16905090565b805f808282829054906101000a900463ffffffff1661011f9190610290565b92506101000a81548163ffffffff021916908363ffffffff16021790555050565b805f808282829054906101000a900463ffffffff1661015f91906102c7565b92506101000a81548163ffffffff021916908363ffffffff16021790555050565b5f8054906101000a900463ffffffff1681565b805f808282829054906101000a900463ffffffff166101b29190610303565b92506101000a81548163ffffffff021916908363ffffffff16021790555050565b5f63ffffffff82169050919050565b6101eb816101d3565b82525050565b5f6020820190506102045f8301846101e2565b92915050565b5f80fd5b610217816101d3565b8114610221575f80fd5b50565b5f813590506102328161020e565b92915050565b5f6020828403121561024d5761024c61020a565b5b5f61025a84828501610224565b91505092915050565b7f4e487b71000000000000000000000000000000000000000000000000000000005f52601160045260245ffd5b5f61029a826101d3565b91506102a5836101d3565b9250828203905063ffffffff8111156102c1576102c0610263565b5b92915050565b5f6102d1826101d3565b91506102dc836101d3565b92508282026102ea816101d3565b91508082146102fc576102fb610263565b5b5092915050565b5f61030d826101d3565b9150610318836101d3565b9250828201905063ffffffff81111561033457610333610263565b5b9291505056fea2646970667358221220429a7934b5860bb0aa855f4166efa41b75b99932f962624d30fb3cdead948bbc64736f6c634300081a0033",
			"opcodes": "PUSH1 0x80 PUSH1 0x40 MSTORE CALLVALUE DUP1 ISZERO PUSH1 0xE JUMPI PUSH0 DUP1 REVERT JUMPDEST POP PUSH1 0x40 MLOAD PUSH2 0x42D CODESIZE SUB DUP1 PUSH2 0x42D DUP4 CODECOPY DUP2 DUP2 ADD PUSH1 0x40 MSTORE DUP2 ADD SWAP1 PUSH1 0x2E SWAP2 SWAP1 PUSH1 0x8A JUMP JUMPDEST DUP1 PUSH0 DUP1 PUSH2 0x100 EXP DUP2 SLOAD DUP2 PUSH4 0xFFFFFFFF MUL NOT AND SWAP1 DUP4 PUSH4 0xFFFFFFFF AND MUL OR SWAP1 SSTORE POP POP PUSH1 0xB0 JUMP JUMPDEST PUSH0 DUP1 REVERT JUMPDEST PUSH0 PUSH4 0xFFFFFFFF DUP3 AND SWAP1 POP SWAP2 SWAP1 POP JUMP JUMPDEST PUSH1 0x6C DUP2 PUSH1 0x56 JUMP JUMPDEST DUP2 EQ PUSH1 0x75 JUMPI PUSH0 DUP1 REVERT JUMPDEST POP JUMP JUMPDEST PUSH0 DUP2 MLOAD SWAP1 POP PUSH1 0x84 DUP2 PUSH1 0x65 JUMP JUMPDEST SWAP3 SWAP2 POP POP JUMP JUMPDEST PUSH0 PUSH1 0x20 DUP3 DUP5 SUB SLT ISZERO PUSH1 0x9C JUMPI PUSH1 0x9B PUSH1 0x52 JUMP JUMPDEST JUMPDEST PUSH0 PUSH1 0xA7 DUP5 DUP3 DUP6 ADD PUSH1 0x78 JUMP JUMPDEST SWAP2 POP POP SWAP3 SWAP2 POP POP JUMP JUMPDEST PUSH2 0x370 DUP1 PUSH2 0xBD PUSH0 CODECOPY PUSH0 RETURN INVALID PUSH1 0x80 PUSH1 0x40 MSTORE CALLVALUE DUP1 ISZERO PUSH2 0xF JUMPI PUSH0 DUP1 REVERT JUMPDEST POP PUSH1 0x4 CALLDATASIZE LT PUSH2 0x55 JUMPI PUSH0 CALLDATALOAD PUSH1 0xE0 SHR DUP1 PUSH4 0x19EB4A90 EQ PUSH2 0x59 JUMPI DUP1 PUSH4 0x1AA93FFB EQ PUSH2 0x77 JUMPI DUP1 PUSH4 0x49D44767 EQ PUSH2 0x93 JUMPI DUP1 PUSH4 0x698996F8 EQ PUSH2 0xAF JUMPI DUP1 PUSH4 0xCBE3A072 EQ PUSH2 0xCD JUMPI JUMPDEST PUSH0 DUP1 REVERT JUMPDEST PUSH2 0x61 PUSH2 0xE9 JUMP JUMPDEST PUSH1 0x40 MLOAD PUSH2 0x6E SWAP2 SWAP1 PUSH2 0x1F1 JUMP JUMPDEST PUSH1 0x40 MLOAD DUP1 SWAP2 SUB SWAP1 RETURN JUMPDEST PUSH2 0x91 PUSH1 0x4 DUP1 CALLDATASIZE SUB DUP2 ADD SWAP1 PUSH2 0x8C SWAP2 SWAP1 PUSH2 0x238 JUMP JUMPDEST PUSH2 0x100 JUMP JUMPDEST STOP JUMPDEST PUSH2 0xAD PUSH1 0x4 DUP1 CALLDATASIZE SUB DUP2 ADD SWAP1 PUSH2 0xA8 SWAP2 SWAP1 PUSH2 0x238 JUMP JUMPDEST PUSH2 0x140 JUMP JUMPDEST STOP JUMPDEST PUSH2 0xB7 PUSH2 0x180 JUMP JUMPDEST PUSH1 0x40 MLOAD PUSH2 0xC4 SWAP2 SWAP1 PUSH2 0x1F1 JUMP JUMPDEST PUSH1 0x40 MLOAD DUP1 SWAP2 SUB SWAP1 RETURN JUMPDEST PUSH2 0xE7 PUSH1 0x4 DUP1 CALLDATASIZE SUB DUP2 ADD SWAP1 PUSH2 0xE2 SWAP2 SWAP1 PUSH2 0x238 JUMP JUMPDEST PUSH2 0x193 JUMP JUMPDEST STOP JUMPDEST PUSH0 DUP1 PUSH0 SWAP1 SLOAD SWAP1 PUSH2 0x100 EXP SWAP1 DIV PUSH4 0xFFFFFFFF AND SWAP1 POP SWAP1 JUMP JUMPDEST DUP1 PUSH0 DUP1 DUP3 DUP3 DUP3 SWAP1 SLOAD SWAP1 PUSH2 0x100 EXP SWAP1 DIV PUSH4 0xFFFFFFFF AND PUSH2 0x11F SWAP2 SWAP1 PUSH2 0x290 JUMP JUMPDEST SWAP3 POP PUSH2 0x100 EXP DUP2 SLOAD DUP2 PUSH4 0xFFFFFFFF MUL NOT AND SWAP1 DUP4 PUSH4 0xFFFFFFFF AND MUL OR SWAP1 SSTORE POP POP JUMP JUMPDEST DUP1 PUSH0 DUP1 DUP3 DUP3 DUP3 SWAP1 SLOAD SWAP1 PUSH2 0x100 EXP SWAP1 DIV PUSH4 0xFFFFFFFF AND PUSH2 0x15F SWAP2 SWAP1 PUSH2 0x2C7 JUMP JUMPDEST SWAP3 POP PUSH2 0x100 EXP DUP2 SLOAD DUP2 PUSH4 0xFFFFFFFF MUL NOT AND SWAP1 DUP4 PUSH4 0xFFFFFFFF AND MUL OR SWAP1 SSTORE POP POP JUMP JUMPDEST PUSH0 DUP1 SLOAD SWAP1 PUSH2 0x100 EXP SWAP1 DIV PUSH4 0xFFFFFFFF AND DUP2 JUMP JUMPDEST DUP1 PUSH0 DUP1 DUP3 DUP3 DUP3 SWAP1 SLOAD SWAP1 PUSH2 0x100 EXP SWAP1 DIV PUSH4 0xFFFFFFFF AND PUSH2 0x1B2 SWAP2 SWAP1 PUSH2 0x303 JUMP JUMPDEST SWAP3 POP PUSH2 0x100 EXP DUP2 SLOAD DUP2 PUSH4 0xFFFFFFFF MUL NOT AND SWAP1 DUP4 PUSH4 0xFFFFFFFF AND MUL OR SWAP1 SSTORE POP POP JUMP JUMPDEST PUSH0 PUSH4 0xFFFFFFFF DUP3 AND SWAP1 POP SWAP2 SWAP1 POP JUMP JUMPDEST PUSH2 0x1EB DUP2 PUSH2 0x1D3 JUMP JUMPDEST DUP3 MSTORE POP POP JUMP JUMPDEST PUSH0 PUSH1 0x20 DUP3 ADD SWAP1 POP PUSH2 0x204 PUSH0 DUP4 ADD DUP5 PUSH2 0x1E2 JUMP JUMPDEST SWAP3 SWAP2 POP POP JUMP JUMPDEST PUSH0 DUP1 REVERT JUMPDEST PUSH2 0x217 DUP2 PUSH2 0x1D3 JUMP JUMPDEST DUP2 EQ PUSH2 0x221 JUMPI PUSH0 DUP1 REVERT JUMPDEST POP JUMP JUMPDEST PUSH0 DUP2 CALLDATALOAD SWAP1 POP PUSH2 0x232 DUP2 PUSH2 0x20E JUMP JUMPDEST SWAP3 SWAP2 POP POP JUMP JUMPDEST PUSH0 PUSH1 0x20 DUP3 DUP5 SUB SLT ISZERO PUSH2 0x24D JUMPI PUSH2 0x24C PUSH2 0x20A JUMP JUMPDEST JUMPDEST PUSH0 PUSH2 0x25A DUP5 DUP3 DUP6 ADD PUSH2 0x224 JUMP JUMPDEST SWAP2 POP POP SWAP3 SWAP2 POP POP JUMP JUMPDEST PUSH32 0x4E487B7100000000000000000000000000000000000000000000000000000000 PUSH0 MSTORE PUSH1 0x11 PUSH1 0x4 MSTORE PUSH1 0x24 PUSH0 REVERT JUMPDEST PUSH0 PUSH2 0x29A DUP3 PUSH2 0x1D3 JUMP JUMPDEST SWAP2 POP PUSH2 0x2A5 DUP4 PUSH2 0x1D3 JUMP JUMPDEST SWAP3 POP DUP3 DUP3 SUB SWAP1 POP PUSH4 0xFFFFFFFF DUP2 GT ISZERO PUSH2 0x2C1 JUMPI PUSH2 0x2C0 PUSH2 0x263 JUMP JUMPDEST JUMPDEST SWAP3 SWAP2 POP POP JUMP JUMPDEST PUSH0 PUSH2 0x2D1 DUP3 PUSH2 0x1D3 JUMP JUMPDEST SWAP2 POP PUSH2 0x2DC DUP4 PUSH2 0x1D3 JUMP JUMPDEST SWAP3 POP DUP3 DUP3 MUL PUSH2 0x2EA DUP2 PUSH2 0x1D3 JUMP JUMPDEST SWAP2 POP DUP1 DUP3 EQ PUSH2 0x2FC JUMPI PUSH2 0x2FB PUSH2 0x263 JUMP JUMPDEST JUMPDEST POP SWAP3 SWAP2 POP POP JUMP JUMPDEST PUSH0 PUSH2 0x30D DUP3 PUSH2 0x1D3 JUMP JUMPDEST SWAP2 POP PUSH2 0x318 DUP4 PUSH2 0x1D3 JUMP JUMPDEST SWAP3 POP DUP3 DUP3 ADD SWAP1 POP PUSH4 0xFFFFFFFF DUP2 GT ISZERO PUSH2 0x334 JUMPI PUSH2 0x333 PUSH2 0x263 JUMP JUMPDEST JUMPDEST SWAP3 SWAP2 POP POP JUMP INVALID LOG2 PUSH5 0x6970667358 0x22 SLT KECCAK256 TIMESTAMP SWAP11 PUSH26 0x34B5860BB0AA855F4166EFA41B75B99932F962624D30FB3CDEAD SWAP5 DUP12 0xBC PUSH5 0x736F6C6343 STOP ADDMOD BYTE STOP CALLER "
		},
		"gasEstimates": {
			"creation": {
				"codeDepositCost": "176000",
				"executionCost": "infinite",
				"totalCost": "infinite"
			},
			"external": {
				"add(uint32)": "infinite",
				"currentValue()": "2507",
				"getValues()": "2451",
				"multiply(uint32)": "infinite",
				"subtract(uint32)": "infinite"
			}
		},
		"methodIdentifiers": {
			"add(uint32)": "cbe3a072",
			"currentValue()": "698996f8",
			"getValues()": "19eb4a90",
			"multiply(uint32)": "49d44767",
			"subtract(uint32)": "1aa93ffb"
		}
	},
	"abi": [
		{
			"inputs": [
				{
					"internalType": "uint32",
					"name": "_num",
					"type": "uint32"
				}
			],
			"stateMutability": "nonpayable",
			"type": "constructor"
		},
		{
			"inputs": [
				{
					"internalType": "uint32",
					"name": "_a",
					"type": "uint32"
				}
			],
			"name": "add",
			"outputs": [],
			"stateMutability": "nonpayable",
			"type": "function"
		},
		{
			"inputs": [],
			"name": "currentValue",
			"outputs": [
				{
					"internalType": "uint32",
					"name": "",
					"type": "uint32"
				}
			],
			"stateMutability": "view",
			"type": "function"
		},
		{
			"inputs": [],
			"name": "getValues",
			"outputs": [
				{
					"internalType": "uint32",
					"name": "",
					"type": "uint32"
				}
			],
			"stateMutability": "view",
			"type": "function"
		},
		{
			"inputs": [
				{
					"internalType": "uint32",
					"name": "_c",
					"type": "uint32"
				}
			],
			"name": "multiply",
			"outputs": [],
			"stateMutability": "nonpayable",
			"type": "function"
		},
		{
			"inputs": [
				{
					"internalType": "uint32",
					"name": "_a",
					"type": "uint32"
				}
			],
			"name": "subtract",
			"outputs": [],
			"stateMutability": "nonpayable",
			"type": "function"
		}
	]
}